{"abi":[{"type":"constructor","inputs":[{"name":"feeAmt","type":"uint256","internalType":"uint256"},{"name":"basisFee","type":"uint256","internalType":"uint256"},{"name":"_verifier","type":"address","internalType":"address"}],"stateMutability":"nonpayable"},{"type":"receive","stateMutability":"payable"},{"type":"function","name":"bondingCurve","inputs":[{"name":"","type":"address","internalType":"address"}],"outputs":[{"name":"tokenMint","type":"address","internalType":"address"},{"name":"virtualTokenReserves","type":"uint256","internalType":"uint256"},{"name":"virtualEthReserves","type":"uint256","internalType":"uint256"},{"name":"realTokenReserves","type":"uint256","internalType":"uint256"},{"name":"realEthReserves","type":"uint256","internalType":"uint256"},{"name":"tokenTotalSupply","type":"uint256","internalType":"uint256"},{"name":"mcapLimit","type":"uint256","internalType":"uint256"},{"name":"complete","type":"bool","internalType":"bool"},{"name":"xUser","type":"string","internalType":"string"},{"name":"collectedFees","type":"uint256","internalType":"uint256"}],"stateMutability":"view"},{"type":"function","name":"buy","inputs":[{"name":"token","type":"address","internalType":"address"},{"name":"amount","type":"uint256","internalType":"uint256"},{"name":"maxEthCost","type":"uint256","internalType":"uint256"}],"outputs":[],"stateMutability":"payable"},{"type":"function","name":"calculateEthCost","inputs":[{"name":"token","type":"tuple","internalType":"struct PumpFun.Token","components":[{"name":"tokenMint","type":"address","internalType":"address"},{"name":"virtualTokenReserves","type":"uint256","internalType":"uint256"},{"name":"virtualEthReserves","type":"uint256","internalType":"uint256"},{"name":"realTokenReserves","type":"uint256","internalType":"uint256"},{"name":"realEthReserves","type":"uint256","internalType":"uint256"},{"name":"tokenTotalSupply","type":"uint256","internalType":"uint256"},{"name":"mcapLimit","type":"uint256","internalType":"uint256"},{"name":"complete","type":"bool","internalType":"bool"},{"name":"xUser","type":"string","internalType":"string"},{"name":"collectedFees","type":"uint256","internalType":"uint256"}]},{"name":"tokenAmount","type":"uint256","internalType":"uint256"}],"outputs":[{"name":"","type":"uint256","internalType":"uint256"}],"stateMutability":"pure"},{"type":"function","name":"calculateSellEthOutput","inputs":[{"name":"token","type":"tuple","internalType":"struct PumpFun.Token","components":[{"name":"tokenMint","type":"address","internalType":"address"},{"name":"virtualTokenReserves","type":"uint256","internalType":"uint256"},{"name":"virtualEthReserves","type":"uint256","internalType":"uint256"},{"name":"realTokenReserves","type":"uint256","internalType":"uint256"},{"name":"realEthReserves","type":"uint256","internalType":"uint256"},{"name":"tokenTotalSupply","type":"uint256","internalType":"uint256"},{"name":"mcapLimit","type":"uint256","internalType":"uint256"},{"name":"complete","type":"bool","internalType":"bool"},{"name":"xUser","type":"string","internalType":"string"},{"name":"collectedFees","type":"uint256","internalType":"uint256"}]},{"name":"tokenAmount","type":"uint256","internalType":"uint256"}],"outputs":[{"name":"","type":"uint256","internalType":"uint256"}],"stateMutability":"pure"},{"type":"function","name":"calculateTokenAmount","inputs":[{"name":"token","type":"tuple","internalType":"struct PumpFun.Token","components":[{"name":"tokenMint","type":"address","internalType":"address"},{"name":"virtualTokenReserves","type":"uint256","internalType":"uint256"},{"name":"virtualEthReserves","type":"uint256","internalType":"uint256"},{"name":"realTokenReserves","type":"uint256","internalType":"uint256"},{"name":"realEthReserves","type":"uint256","internalType":"uint256"},{"name":"tokenTotalSupply","type":"uint256","internalType":"uint256"},{"name":"mcapLimit","type":"uint256","internalType":"uint256"},{"name":"complete","type":"bool","internalType":"bool"},{"name":"xUser","type":"string","internalType":"string"},{"name":"collectedFees","type":"uint256","internalType":"uint256"}]},{"name":"ethAmount","type":"uint256","internalType":"uint256"}],"outputs":[{"name":"","type":"uint256","internalType":"uint256"}],"stateMutability":"pure"},{"type":"function","name":"collectFees","inputs":[{"name":"token","type":"address","internalType":"address"},{"name":"proof","type":"tuple","internalType":"struct Proof","components":[{"name":"seal","type":"tuple","internalType":"struct Seal","components":[{"name":"verifierSelector","type":"bytes4","internalType":"bytes4"},{"name":"seal","type":"bytes32[8]","internalType":"bytes32[8]"},{"name":"mode","type":"uint8","internalType":"enum ProofMode"}]},{"name":"callGuestId","type":"bytes32","internalType":"bytes32"},{"name":"length","type":"uint256","internalType":"uint256"},{"name":"callAssumptions","type":"tuple","internalType":"struct CallAssumptions","components":[{"name":"proverContractAddress","type":"address","internalType":"address"},{"name":"functionSelector","type":"bytes4","internalType":"bytes4"},{"name":"settleChainId","type":"uint256","internalType":"uint256"},{"name":"settleBlockNumber","type":"uint256","internalType":"uint256"},{"name":"settleBlockHash","type":"bytes32","internalType":"bytes32"}]}]}],"outputs":[],"stateMutability":"nonpayable"},{"type":"function","name":"createPool","inputs":[{"name":"token","type":"address","internalType":"address"},{"name":"amount","type":"uint256","internalType":"uint256"}],"outputs":[],"stateMutability":"payable"},{"type":"function","name":"getBondingCurve","inputs":[{"name":"mint","type":"address","internalType":"address"}],"outputs":[{"name":"","type":"tuple","internalType":"struct PumpFun.Token","components":[{"name":"tokenMint","type":"address","internalType":"address"},{"name":"virtualTokenReserves","type":"uint256","internalType":"uint256"},{"name":"virtualEthReserves","type":"uint256","internalType":"uint256"},{"name":"realTokenReserves","type":"uint256","internalType":"uint256"},{"name":"realEthReserves","type":"uint256","internalType":"uint256"},{"name":"tokenTotalSupply","type":"uint256","internalType":"uint256"},{"name":"mcapLimit","type":"uint256","internalType":"uint256"},{"name":"complete","type":"bool","internalType":"bool"},{"name":"xUser","type":"string","internalType":"string"},{"name":"collectedFees","type":"uint256","internalType":"uint256"}]}],"stateMutability":"view"},{"type":"function","name":"getCreateFee","inputs":[],"outputs":[{"name":"","type":"uint256","internalType":"uint256"}],"stateMutability":"view"},{"type":"function","name":"getXUserTokens","inputs":[{"name":"xUser","type":"string","internalType":"string"}],"outputs":[{"name":"","type":"address[]","internalType":"address[]"}],"stateMutability":"view"},{"type":"function","name":"sell","inputs":[{"name":"token","type":"address","internalType":"address"},{"name":"amount","type":"uint256","internalType":"uint256"},{"name":"minEthOutput","type":"uint256","internalType":"uint256"}],"outputs":[],"stateMutability":"nonpayable"},{"type":"function","name":"setFeeAmount","inputs":[{"name":"newBasisPoint","type":"uint256","internalType":"uint256"},{"name":"newCreateFee","type":"uint256","internalType":"uint256"}],"outputs":[],"stateMutability":"nonpayable"},{"type":"function","name":"setInitialVirtualReserves","inputs":[{"name":"initToken","type":"uint256","internalType":"uint256"},{"name":"initEth","type":"uint256","internalType":"uint256"}],"outputs":[],"stateMutability":"nonpayable"},{"type":"function","name":"setMcapLimit","inputs":[{"name":"newLimit","type":"uint256","internalType":"uint256"}],"outputs":[],"stateMutability":"nonpayable"},{"type":"function","name":"setOwner","inputs":[{"name":"newAddr","type":"address","internalType":"address"}],"outputs":[],"stateMutability":"nonpayable"},{"type":"function","name":"setTotalSupply","inputs":[{"name":"newSupply","type":"uint256","internalType":"uint256"}],"outputs":[],"stateMutability":"nonpayable"},{"type":"function","name":"verifier","inputs":[],"outputs":[{"name":"","type":"address","internalType":"contract WebProofVerifier"}],"stateMutability":"view"},{"type":"function","name":"withdraw","inputs":[{"name":"token","type":"address","internalType":"address"}],"outputs":[],"stateMutability":"nonpayable"},{"type":"function","name":"xUserTokens","inputs":[{"name":"","type":"string","internalType":"string"},{"name":"","type":"uint256","internalType":"uint256"}],"outputs":[{"name":"","type":"address","internalType":"address"}],"stateMutability":"view"},{"type":"event","name":"Complete","inputs":[{"name":"user","type":"address","indexed":true,"internalType":"address"},{"name":"mint","type":"address","indexed":true,"internalType":"address"},{"name":"timestamp","type":"uint256","indexed":false,"internalType":"uint256"}],"anonymous":false},{"type":"event","name":"CreatePool","inputs":[{"name":"mint","type":"address","indexed":true,"internalType":"address"},{"name":"user","type":"address","indexed":true,"internalType":"address"}],"anonymous":false},{"type":"event","name":"FeesCollected","inputs":[{"name":"xUser","type":"string","indexed":false,"internalType":"string"},{"name":"amount","type":"uint256","indexed":false,"internalType":"uint256"}],"anonymous":false},{"type":"event","name":"Trade","inputs":[{"name":"mint","type":"address","indexed":true,"internalType":"address"},{"name":"ethAmount","type":"uint256","indexed":false,"internalType":"uint256"},{"name":"tokenAmount","type":"uint256","indexed":false,"internalType":"uint256"},{"name":"isBuy","type":"bool","indexed":false,"internalType":"bool"},{"name":"user","type":"address","indexed":true,"internalType":"address"},{"name":"timestamp","type":"uint256","indexed":false,"internalType":"uint256"},{"name":"virtualEthReserves","type":"uint256","indexed":false,"internalType":"uint256"},{"name":"virtualTokenReserves","type":"uint256","indexed":false,"internalType":"uint256"}],"anonymous":false},{"type":"error","name":"ReentrancyGuardReentrantCall","inputs":[]}],"bytecode":{"object":"0x608060405234801561000f575f5ffd5b50604051613fe7380380613fe7833981810160405281019061003191906101a5565b60015f819055503360015f6101000a81548173ffffffffffffffffffffffffffffffffffffffff021916908373ffffffffffffffffffffffffffffffffffffffff16021790555082600781905550816006819055506b037790a0e8714009b49c00006002819055506801a055690d9db800006003819055506b033b2e3c9fd0803ce800000060048190555068049b9ca9a6943400006005819055508060095f6101000a81548173ffffffffffffffffffffffffffffffffffffffff021916908373ffffffffffffffffffffffffffffffffffffffff1602179055505050506101f5565b5f5ffd5b5f819050919050565b61012a81610118565b8114610134575f5ffd5b50565b5f8151905061014581610121565b92915050565b5f73ffffffffffffffffffffffffffffffffffffffff82169050919050565b5f6101748261014b565b9050919050565b6101848161016a565b811461018e575f5ffd5b50565b5f8151905061019f8161017b565b92915050565b5f5f5f606084860312156101bc576101bb610114565b5b5f6101c986828701610137565b93505060206101da86828701610137565b92505060406101eb86828701610191565b9150509250925092565b613de5806102025f395ff3fe608060405260043610610117575f3560e01c80636a2724621161009f578063d0c58e4811610063578063d0c58e48146103a2578063dd2c56c1146103e7578063e8dc132b14610423578063efc2ead81461044b578063f7ea7a3d146104735761011e565b80636a272462146102aa57806383db2a21146102d257806385a917761461030e578063a59ac6dd1461034a578063b49a90a8146103665761011e565b80634244a6e2116100e65780634244a6e2146101b857806351cff8d9146101e25780635c1c78021461020a578063615aae3e14610246578063648f6aeb146102825761011e565b806312d361711461012257806313af40351461013e5780632b7ac3f3146101665780632c0021f6146101905761011e565b3661011e57005b5f5ffd5b61013c60048036038101906101379190612361565b61049b565b005b348015610149575f5ffd5b50610164600480360381019061015f919061239f565b61085a565b005b348015610171575f5ffd5b5061017a61099a565b6040516101879190612425565b60405180910390f35b34801561019b575f5ffd5b506101b660048036038101906101b19190612461565b6109bf565b005b3480156101c3575f5ffd5b506101cc610c38565b6040516101d991906124af565b60405180910390f35b3480156101ed575f5ffd5b506102086004803603810190610203919061239f565b610c41565b005b348015610215575f5ffd5b50610230600480360381019061022b9190612750565b610e75565b60405161023d91906124af565b60405180910390f35b348015610251575f5ffd5b5061026c600480360381019061026791906127aa565b610fa9565b60405161027991906128a8565b60405180910390f35b34801561028d575f5ffd5b506102a860048036038101906102a391906128c8565b611052565b005b3480156102b5575f5ffd5b506102d060048036038101906102cb91906128f3565b61112d565b005b3480156102dd575f5ffd5b506102f860048036038101906102f3919061239f565b611596565b6040516103059190612a98565b60405180910390f35b348015610319575f5ffd5b50610334600480360381019061032f9190612ab8565b611732565b6040516103419190612b21565b60405180910390f35b610364600480360381019061035f91906128f3565b611792565b005b348015610371575f5ffd5b5061038c60048036038101906103879190612750565b611cd9565b60405161039991906124af565b60405180910390f35b3480156103ad575f5ffd5b506103c860048036038101906103c3919061239f565b611e4f565b6040516103de9a99989796959493929190612b91565b60405180910390f35b3480156103f2575f5ffd5b5061040d60048036038101906104089190612750565b611f50565b60405161041a91906124af565b60405180910390f35b34801561042e575f5ffd5b5061044960048036038101906104449190612c32565b611faa565b005b348015610456575f5ffd5b50610471600480360381019061046c9190612c32565b612098565b005b34801561047e575f5ffd5b50610499600480360381019061049491906128c8565b612186565b005b5f81116104dd576040517f08c379a00000000000000000000000000000000000000000000000000000000081526004016104d490612cba565b60405180910390fd5b600754341015610522576040517f08c379a000000000000000000000000000000000000000000000000000000000815260040161051990612d22565b60405180910390fd5b8173ffffffffffffffffffffffffffffffffffffffff166323b872dd3330846040518463ffffffff1660e01b815260040161055f93929190612d40565b6020604051808303815f875af115801561057b573d5f5f3e3d5ffd5b505050506040513d601f19601f8201168201806040525081019061059f9190612d89565b505f8273ffffffffffffffffffffffffffffffffffffffff1663d60ebf4e6040518163ffffffff1660e01b81526004015f60405180830381865afa1580156105e9573d5f5f3e3d5ffd5b505050506040513d5f823e3d601f19601f820116820180604052508101906106119190612e22565b90505f6040518061014001604052808573ffffffffffffffffffffffffffffffffffffffff168152602001600254815260200160035481526020018481526020015f8152602001600454815260200160055481526020015f151581526020018381526020015f815250905080600a5f8673ffffffffffffffffffffffffffffffffffffffff1673ffffffffffffffffffffffffffffffffffffffff1681526020019081526020015f205f820151815f015f6101000a81548173ffffffffffffffffffffffffffffffffffffffff021916908373ffffffffffffffffffffffffffffffffffffffff1602179055506020820151816001015560408201518160020155606082015181600301556080820151816004015560a0820151816005015560c0820151816006015560e0820151816007015f6101000a81548160ff02191690831515021790555061010082015181600801908161076f919061305d565b506101208201518160090155905050600b8260405161078e9190613166565b908152602001604051809103902084908060018154018082558091505060019003905f5260205f20015f9091909190916101000a81548173ffffffffffffffffffffffffffffffffffffffff021916908373ffffffffffffffffffffffffffffffffffffffff1602179055503373ffffffffffffffffffffffffffffffffffffffff168473ffffffffffffffffffffffffffffffffffffffff167fdbd2a1ea6808362e6adbec4db4969cbc11e3b0b28fb6c74cb342defaaf1daada60405160405180910390a350505050565b60015f9054906101000a900473ffffffffffffffffffffffffffffffffffffffff1673ffffffffffffffffffffffffffffffffffffffff163373ffffffffffffffffffffffffffffffffffffffff16146108e9576040517f08c379a00000000000000000000000000000000000000000000000000000000081526004016108e0906131c6565b60405180910390fd5b5f73ffffffffffffffffffffffffffffffffffffffff168173ffffffffffffffffffffffffffffffffffffffff1603610957576040517f08c379a000000000000000000000000000000000000000000000000000000000815260040161094e9061322e565b60405180910390fd5b8060015f6101000a81548173ffffffffffffffffffffffffffffffffffffffff021916908373ffffffffffffffffffffffffffffffffffffffff16021790555050565b60095f9054906101000a900473ffffffffffffffffffffffffffffffffffffffff1681565b5f600a5f8473ffffffffffffffffffffffffffffffffffffffff1673ffffffffffffffffffffffffffffffffffffffff1681526020019081526020015f2090505f8373ffffffffffffffffffffffffffffffffffffffff1663d60ebf4e6040518163ffffffff1660e01b81526004015f60405180830381865afa158015610a48573d5f5f3e3d5ffd5b505050506040513d5f823e3d601f19601f82011682018060405250810190610a709190612e22565b9050808051906020012082600801604051610a8b91906132e8565b604051809103902014610ad3576040517f08c379a0000000000000000000000000000000000000000000000000000000008152600401610aca90613348565b60405180910390fd5b5f826009015411610b19576040517f08c379a0000000000000000000000000000000000000000000000000000000008152600401610b10906133b0565b60405180910390fd5b60095f9054906101000a900473ffffffffffffffffffffffffffffffffffffffff1673ffffffffffffffffffffffffffffffffffffffff166372745ff68483336040518463ffffffff1660e01b8152600401610b7793929190613713565b5f6040518083038186803b158015610b8d575f5ffd5b505afa158015610b9f573d5f5f3e3d5ffd5b505050505f826009015490505f83600901819055503373ffffffffffffffffffffffffffffffffffffffff166108fc8290811502906040515f60405180830381858888f19350505050158015610bf7573d5f5f3e3d5ffd5b507f8ccd56a044800bf3a636bebe3426f41be09aa41765d7d94710960edaa80869308282604051610c29929190613752565b60405180910390a15050505050565b5f600754905090565b60015f9054906101000a900473ffffffffffffffffffffffffffffffffffffffff1673ffffffffffffffffffffffffffffffffffffffff163373ffffffffffffffffffffffffffffffffffffffff1614610cd0576040517f08c379a0000000000000000000000000000000000000000000000000000000008152600401610cc7906131c6565b60405180910390fd5b5f600a5f8373ffffffffffffffffffffffffffffffffffffffff1673ffffffffffffffffffffffffffffffffffffffff1681526020019081526020015f20905060011515816007015f9054906101000a900460ff16151514610d67576040517f08c379a0000000000000000000000000000000000000000000000000000000008152600401610d5e906137ca565b60405180910390fd5b60015f9054906101000a900473ffffffffffffffffffffffffffffffffffffffff1673ffffffffffffffffffffffffffffffffffffffff166108fc826004015490811502906040515f60405180830381858888f19350505050158015610dcf573d5f5f3e3d5ffd5b508173ffffffffffffffffffffffffffffffffffffffff1663a9059cbb60015f9054906101000a900473ffffffffffffffffffffffffffffffffffffffff1683600301546040518363ffffffff1660e01b8152600401610e309291906137e8565b6020604051808303815f875af1158015610e4c573d5f5f3e3d5ffd5b505050506040513d601f19601f82011682018060405250810190610e709190612d89565b505050565b5f5f83602001518460400151610e8b919061383c565b90505f838560200151610e9e919061387d565b905084602001518111610ee6576040517f08c379a0000000000000000000000000000000000000000000000000000000008152600401610edd906138fa565b60405180910390fd5b5f60018284610ef59190613945565b610eff919061387d565b905085604001518110610f47576040517f08c379a0000000000000000000000000000000000000000000000000000000008152600401610f3e906139bf565b60405180910390fd5b5f818760400151610f5891906139dd565b90505f8111610f9c576040517f08c379a0000000000000000000000000000000000000000000000000000000008152600401610f9390613a5a565b60405180910390fd5b8094505050505092915050565b6060600b82604051610fbb9190613166565b908152602001604051809103902080548060200260200160405190810160405280929190818152602001828054801561104657602002820191905f5260205f20905b815f9054906101000a900473ffffffffffffffffffffffffffffffffffffffff1673ffffffffffffffffffffffffffffffffffffffff1681526020019060010190808311610ffd575b50505050509050919050565b60015f9054906101000a900473ffffffffffffffffffffffffffffffffffffffff1673ffffffffffffffffffffffffffffffffffffffff163373ffffffffffffffffffffffffffffffffffffffff16146110e1576040517f08c379a00000000000000000000000000000000000000000000000000000000081526004016110d8906131c6565b60405180910390fd5b5f8111611123576040517f08c379a000000000000000000000000000000000000000000000000000000000815260040161111a90613ac2565b60405180910390fd5b8060058190555050565b5f600a5f8573ffffffffffffffffffffffffffffffffffffffff1673ffffffffffffffffffffffffffffffffffffffff1681526020019081526020015f2090505f1515816007015f9054906101000a900460ff161515146111c3576040517f08c379a00000000000000000000000000000000000000000000000000000000081526004016111ba90613b2a565b60405180910390fd5b5f8311611205576040517f08c379a00000000000000000000000000000000000000000000000000000000081526004016111fc90613ac2565b60405180910390fd5b5f61136082604051806101400160405290815f82015f9054906101000a900473ffffffffffffffffffffffffffffffffffffffff1673ffffffffffffffffffffffffffffffffffffffff1673ffffffffffffffffffffffffffffffffffffffff168152602001600182015481526020016002820154815260200160038201548152602001600482015481526020016005820154815260200160068201548152602001600782015f9054906101000a900460ff161515151581526020016008820180546112d090612e96565b80601f01602080910402602001604051908101604052809291908181526020018280546112fc90612e96565b80156113475780601f1061131e57610100808354040283529160200191611347565b820191905f5260205f20905b81548152906001019060200180831161132a57829003601f168201915b5050505050815260200160098201548152505085610e75565b9050828110156113a5576040517f08c379a000000000000000000000000000000000000000000000000000000000815260040161139c90613b92565b60405180910390fd5b5f612710826006546113b7919061383c565b6113c19190613945565b90505f81836113d091906139dd565b905081846009015f8282546113e5919061387d565b925050819055503373ffffffffffffffffffffffffffffffffffffffff166108fc8290811502906040515f60405180830381858888f1935050505015801561142f573d5f5f3e3d5ffd5b508673ffffffffffffffffffffffffffffffffffffffff166323b872dd3330896040518463ffffffff1660e01b815260040161146d93929190612d40565b6020604051808303815f875af1158015611489573d5f5f3e3d5ffd5b505050506040513d601f19601f820116820180604052508101906114ad9190612d89565b5085846003015f8282546114c1919061387d565b9250508190555085846001015f8282546114db919061387d565b9250508190555082846002015f8282546114f591906139dd565b9250508190555082846004015f82825461150f91906139dd565b925050819055503373ffffffffffffffffffffffffffffffffffffffff168773ffffffffffffffffffffffffffffffffffffffff167f671f6af1a2244f88c1a5e6c6310f86653d313027950723ffc12387348a9ed8b385895f428a600201548b6001015460405161158596959493929190613bb0565b60405180910390a350505050505050565b61159e612261565b600a5f8373ffffffffffffffffffffffffffffffffffffffff1673ffffffffffffffffffffffffffffffffffffffff1681526020019081526020015f20604051806101400160405290815f82015f9054906101000a900473ffffffffffffffffffffffffffffffffffffffff1673ffffffffffffffffffffffffffffffffffffffff1673ffffffffffffffffffffffffffffffffffffffff168152602001600182015481526020016002820154815260200160038201548152602001600482015481526020016005820154815260200160068201548152602001600782015f9054906101000a900460ff161515151581526020016008820180546116a190612e96565b80601f01602080910402602001604051908101604052809291908181526020018280546116cd90612e96565b80156117185780601f106116ef57610100808354040283529160200191611718565b820191905f5260205f20905b8154815290600101906020018083116116fb57829003601f168201915b505050505081526020016009820154815250509050919050565b600b828051602081018201805184825260208301602085012081835280955050505050508181548110611763575f80fd5b905f5260205f20015f915091509054906101000a900473ffffffffffffffffffffffffffffffffffffffff1681565b5f600a5f8573ffffffffffffffffffffffffffffffffffffffff1673ffffffffffffffffffffffffffffffffffffffff1681526020019081526020015f2090505f8311611814576040517f08c379a000000000000000000000000000000000000000000000000000000000815260040161180b90613ac2565b60405180910390fd5b5f1515816007015f9054906101000a900460ff1615151461186a576040517f08c379a000000000000000000000000000000000000000000000000000000000815260040161186190613b2a565b60405180910390fd5b5f6119c582604051806101400160405290815f82015f9054906101000a900473ffffffffffffffffffffffffffffffffffffffff1673ffffffffffffffffffffffffffffffffffffffff1673ffffffffffffffffffffffffffffffffffffffff168152602001600182015481526020016002820154815260200160038201548152602001600482015481526020016005820154815260200160068201548152602001600782015f9054906101000a900460ff1615151515815260200160088201805461193590612e96565b80601f016020809104026020016040519081016040528092919081815260200182805461196190612e96565b80156119ac5780601f10611983576101008083540402835291602001916119ac565b820191905f5260205f20905b81548152906001019060200180831161198f57829003601f168201915b5050505050815260200160098201548152505085611cd9565b90505f612710826006546119d9919061383c565b6119e39190613945565b90505f81836119f2919061387d565b905084811115611a37576040517f08c379a0000000000000000000000000000000000000000000000000000000008152600401611a2e90613c59565b60405180910390fd5b80341015611a7a576040517f08c379a0000000000000000000000000000000000000000000000000000000008152600401611a7190613cc1565b60405180910390fd5b81846009015f828254611a8d919061387d565b925050819055508673ffffffffffffffffffffffffffffffffffffffff1663a9059cbb33886040518363ffffffff1660e01b8152600401611acf9291906137e8565b6020604051808303815f875af1158015611aeb573d5f5f3e3d5ffd5b505050506040513d601f19601f82011682018060405250810190611b0f9190612d89565b5085846003015f828254611b2391906139dd565b9250508190555085846001015f828254611b3d91906139dd565b9250508190555082846002015f828254611b57919061387d565b9250508190555082846004015f828254611b71919061387d565b925050819055505f84600101546004548660020154611b90919061383c565b611b9a9190613945565b90505f60045460648760030154611bb1919061383c565b611bbb9190613945565b90508560060154821180611bcf5750601481105b15611c56576001866007015f6101000a81548160ff0219169083151502179055508873ffffffffffffffffffffffffffffffffffffffff163373ffffffffffffffffffffffffffffffffffffffff167f50e82f857ece413f502ecf1e6db36e3f6f1c118bb444db8409896b1bf1d11e3d42604051611c4d91906124af565b60405180910390a35b3373ffffffffffffffffffffffffffffffffffffffff168973ffffffffffffffffffffffffffffffffffffffff167f671f6af1a2244f88c1a5e6c6310f86653d313027950723ffc12387348a9ed8b3878b6001428c600201548d60010154604051611cc696959493929190613bb0565b60405180910390a3505050505050505050565b5f5f83602001518460400151611cef919061383c565b905083602001518310611d37576040517f08c379a0000000000000000000000000000000000000000000000000000000008152600401611d2e906138fa565b60405180910390fd5b5f838560200151611d4891906139dd565b90505f8111611d8c576040517f08c379a0000000000000000000000000000000000000000000000000000000008152600401611d8390613d29565b60405180910390fd5b5f60018284611d9b9190613945565b611da5919061387d565b905085604001518111611ded576040517f08c379a0000000000000000000000000000000000000000000000000000000008152600401611de4906139bf565b60405180910390fd5b5f866040015182611dfe91906139dd565b90505f8111611e42576040517f08c379a0000000000000000000000000000000000000000000000000000000008152600401611e3990613d91565b60405180910390fd5b8094505050505092915050565b600a602052805f5260405f205f91509050805f015f9054906101000a900473ffffffffffffffffffffffffffffffffffffffff1690806001015490806002015490806003015490806004015490806005015490806006015490806007015f9054906101000a900460ff1690806008018054611ec990612e96565b80601f0160208091040260200160405190810160405280929190818152602001828054611ef590612e96565b8015611f405780601f10611f1757610100808354040283529160200191611f40565b820191905f5260205f20905b815481529060010190602001808311611f2357829003601f168201915b505050505090806009015490508a565b5f5f83602001518460400151611f66919061383c565b90505f838560400151611f79919061387d565b90505f8183611f889190613945565b90505f818760200151611f9b91906139dd565b90508094505050505092915050565b60015f9054906101000a900473ffffffffffffffffffffffffffffffffffffffff1673ffffffffffffffffffffffffffffffffffffffff163373ffffffffffffffffffffffffffffffffffffffff1614612039576040517f08c379a0000000000000000000000000000000000000000000000000000000008152600401612030906131c6565b60405180910390fd5b5f8211801561204757505f81115b612086576040517f08c379a000000000000000000000000000000000000000000000000000000000815260040161207d90613ac2565b60405180910390fd5b81600681905550806007819055505050565b60015f9054906101000a900473ffffffffffffffffffffffffffffffffffffffff1673ffffffffffffffffffffffffffffffffffffffff163373ffffffffffffffffffffffffffffffffffffffff1614612127576040517f08c379a000000000000000000000000000000000000000000000000000000000815260040161211e906131c6565b60405180910390fd5b5f8111801561213557505f82115b612174576040517f08c379a000000000000000000000000000000000000000000000000000000000815260040161216b90613ac2565b60405180910390fd5b81600281905550806003819055505050565b60015f9054906101000a900473ffffffffffffffffffffffffffffffffffffffff1673ffffffffffffffffffffffffffffffffffffffff163373ffffffffffffffffffffffffffffffffffffffff1614612215576040517f08c379a000000000000000000000000000000000000000000000000000000000815260040161220c906131c6565b60405180910390fd5b5f8111612257576040517f08c379a000000000000000000000000000000000000000000000000000000000815260040161224e90613ac2565b60405180910390fd5b8060048190555050565b6040518061014001604052805f73ffffffffffffffffffffffffffffffffffffffff1681526020015f81526020015f81526020015f81526020015f81526020015f81526020015f81526020015f15158152602001606081526020015f81525090565b5f604051905090565b5f5ffd5b5f5ffd5b5f73ffffffffffffffffffffffffffffffffffffffff82169050919050565b5f6122fd826122d4565b9050919050565b61230d816122f3565b8114612317575f5ffd5b50565b5f8135905061232881612304565b92915050565b5f819050919050565b6123408161232e565b811461234a575f5ffd5b50565b5f8135905061235b81612337565b92915050565b5f5f60408385031215612377576123766122cc565b5b5f6123848582860161231a565b92505060206123958582860161234d565b9150509250929050565b5f602082840312156123b4576123b36122cc565b5b5f6123c18482850161231a565b91505092915050565b5f819050919050565b5f6123ed6123e86123e3846122d4565b6123ca565b6122d4565b9050919050565b5f6123fe826123d3565b9050919050565b5f61240f826123f4565b9050919050565b61241f81612405565b82525050565b5f6020820190506124385f830184612416565b92915050565b5f5ffd5b5f61022082840312156124585761245761243e565b5b81905092915050565b5f5f6102408385031215612478576124776122cc565b5b5f6124858582860161231a565b925050602061249685828601612442565b9150509250929050565b6124a98161232e565b82525050565b5f6020820190506124c25f8301846124a0565b92915050565b5f5ffd5b5f601f19601f8301169050919050565b7f4e487b71000000000000000000000000000000000000000000000000000000005f52604160045260245ffd5b612512826124cc565b810181811067ffffffffffffffff82111715612531576125306124dc565b5b80604052505050565b5f6125436122c3565b905061254f8282612509565b919050565b5f5ffd5b5f8115159050919050565b61256c81612558565b8114612576575f5ffd5b50565b5f8135905061258781612563565b92915050565b5f5ffd5b5f5ffd5b5f67ffffffffffffffff8211156125af576125ae6124dc565b5b6125b8826124cc565b9050602081019050919050565b828183375f83830152505050565b5f6125e56125e084612595565b61253a565b90508281526020810184848401111561260157612600612591565b5b61260c8482856125c5565b509392505050565b5f82601f8301126126285761262761258d565b5b81356126388482602086016125d3565b91505092915050565b5f6101408284031215612657576126566124c8565b5b61266261014061253a565b90505f6126718482850161231a565b5f8301525060206126848482850161234d565b60208301525060406126988482850161234d565b60408301525060606126ac8482850161234d565b60608301525060806126c08482850161234d565b60808301525060a06126d48482850161234d565b60a08301525060c06126e88482850161234d565b60c08301525060e06126fc84828501612579565b60e08301525061010082013567ffffffffffffffff81111561272157612720612554565b5b61272d84828501612614565b610100830152506101206127438482850161234d565b6101208301525092915050565b5f5f60408385031215612766576127656122cc565b5b5f83013567ffffffffffffffff811115612783576127826122d0565b5b61278f85828601612641565b92505060206127a08582860161234d565b9150509250929050565b5f602082840312156127bf576127be6122cc565b5b5f82013567ffffffffffffffff8111156127dc576127db6122d0565b5b6127e884828501612614565b91505092915050565b5f81519050919050565b5f82825260208201905092915050565b5f819050602082019050919050565b612823816122f3565b82525050565b5f612834838361281a565b60208301905092915050565b5f602082019050919050565b5f612856826127f1565b61286081856127fb565b935061286b8361280b565b805f5b8381101561289b5781516128828882612829565b975061288d83612840565b92505060018101905061286e565b5085935050505092915050565b5f6020820190508181035f8301526128c0818461284c565b905092915050565b5f602082840312156128dd576128dc6122cc565b5b5f6128ea8482850161234d565b91505092915050565b5f5f5f6060848603121561290a576129096122cc565b5b5f6129178682870161231a565b93505060206129288682870161234d565b92505060406129398682870161234d565b9150509250925092565b61294c8161232e565b82525050565b61295b81612558565b82525050565b5f81519050919050565b5f82825260208201905092915050565b8281835e5f83830152505050565b5f61299382612961565b61299d818561296b565b93506129ad81856020860161297b565b6129b6816124cc565b840191505092915050565b5f61014083015f8301516129d75f86018261281a565b5060208301516129ea6020860182612943565b5060408301516129fd6040860182612943565b506060830151612a106060860182612943565b506080830151612a236080860182612943565b5060a0830151612a3660a0860182612943565b5060c0830151612a4960c0860182612943565b5060e0830151612a5c60e0860182612952565b50610100830151848203610100860152612a768282612989565b915050610120830151612a8d610120860182612943565b508091505092915050565b5f6020820190508181035f830152612ab081846129c1565b905092915050565b5f5f60408385031215612ace57612acd6122cc565b5b5f83013567ffffffffffffffff811115612aeb57612aea6122d0565b5b612af785828601612614565b9250506020612b088582860161234d565b9150509250929050565b612b1b816122f3565b82525050565b5f602082019050612b345f830184612b12565b92915050565b612b4381612558565b82525050565b5f82825260208201905092915050565b5f612b6382612961565b612b6d8185612b49565b9350612b7d81856020860161297b565b612b86816124cc565b840191505092915050565b5f61014082019050612ba55f83018d612b12565b612bb2602083018c6124a0565b612bbf604083018b6124a0565b612bcc606083018a6124a0565b612bd960808301896124a0565b612be660a08301886124a0565b612bf360c08301876124a0565b612c0060e0830186612b3a565b818103610100830152612c138185612b59565b9050612c236101208301846124a0565b9b9a5050505050505050505050565b5f5f60408385031215612c4857612c476122cc565b5b5f612c558582860161234d565b9250506020612c668582860161234d565b9150509250929050565b7f437265617465506f6f6c3a204c6172676572207468616e205a65726f000000005f82015250565b5f612ca4601c83612b49565b9150612caf82612c70565b602082019050919050565b5f6020820190508181035f830152612cd181612c98565b9050919050565b7f437265617465506f6f6c3a2056616c756520416d6f756e7400000000000000005f82015250565b5f612d0c601883612b49565b9150612d1782612cd8565b602082019050919050565b5f6020820190508181035f830152612d3981612d00565b9050919050565b5f606082019050612d535f830186612b12565b612d606020830185612b12565b612d6d60408301846124a0565b949350505050565b5f81519050612d8381612563565b92915050565b5f60208284031215612d9e57612d9d6122cc565b5b5f612dab84828501612d75565b91505092915050565b5f612dc6612dc184612595565b61253a565b905082815260208101848484011115612de257612de1612591565b5b612ded84828561297b565b509392505050565b5f82601f830112612e0957612e0861258d565b5b8151612e19848260208601612db4565b91505092915050565b5f60208284031215612e3757612e366122cc565b5b5f82015167ffffffffffffffff811115612e5457612e536122d0565b5b612e6084828501612df5565b91505092915050565b7f4e487b71000000000000000000000000000000000000000000000000000000005f52602260045260245ffd5b5f6002820490506001821680612ead57607f821691505b602082108103612ec057612ebf612e69565b5b50919050565b5f819050815f5260205f209050919050565b5f6020601f8301049050919050565b5f82821b905092915050565b5f60088302612f227fffffffffffffffffffffffffffffffffffffffffffffffffffffffffffffffff82612ee7565b612f2c8683612ee7565b95508019841693508086168417925050509392505050565b5f612f5e612f59612f548461232e565b6123ca565b61232e565b9050919050565b5f819050919050565b612f7783612f44565b612f8b612f8382612f65565b848454612ef3565b825550505050565b5f5f905090565b612fa2612f93565b612fad818484612f6e565b505050565b5b81811015612fd057612fc55f82612f9a565b600181019050612fb3565b5050565b601f82111561301557612fe681612ec6565b612fef84612ed8565b81016020851015612ffe578190505b61301261300a85612ed8565b830182612fb2565b50505b505050565b5f82821c905092915050565b5f6130355f198460080261301a565b1980831691505092915050565b5f61304d8383613026565b9150826002028217905092915050565b61306682612961565b67ffffffffffffffff81111561307f5761307e6124dc565b5b6130898254612e96565b613094828285612fd4565b5f60209050601f8311600181146130c5575f84156130b3578287015190505b6130bd8582613042565b865550613124565b601f1984166130d386612ec6565b5f5b828110156130fa578489015182556001820191506020850194506020810190506130d5565b868310156131175784890151613113601f891682613026565b8355505b6001600288020188555050505b505050505050565b5f81905092915050565b5f61314082612961565b61314a818561312c565b935061315a81856020860161297b565b80840191505092915050565b5f6131718284613136565b915081905092915050565b7f4e6f74204f776e657200000000000000000000000000000000000000000000005f82015250565b5f6131b0600983612b49565b91506131bb8261317c565b602082019050919050565b5f6020820190508181035f8301526131dd816131a4565b9050919050565b7f4e6f6e207a65726f2041646472657373000000000000000000000000000000005f82015250565b5f613218601083612b49565b9150613223826131e4565b602082019050919050565b5f6020820190508181035f8301526132458161320c565b9050919050565b5f81905092915050565b5f819050815f5260205f209050919050565b5f815461327481612e96565b61327e818661324c565b9450600182165f811461329857600181146132ad576132df565b60ff19831686528115158202860193506132df565b6132b685613256565b5f5b838110156132d7578154818901526001820191506020810190506132b8565b838801955050505b50505092915050565b5f6132f38284613268565b915081905092915050565b7f4e6f7420617574686f72697a65640000000000000000000000000000000000005f82015250565b5f613332600e83612b49565b915061333d826132fe565b602082019050919050565b5f6020820190508181035f83015261335f81613326565b9050919050565b7f4e6f206665657320746f20636f6c6c65637400000000000000000000000000005f82015250565b5f61339a601283612b49565b91506133a582613366565b602082019050919050565b5f6020820190508181035f8301526133c78161338e565b9050919050565b5f82905092915050565b5f7fffffffff0000000000000000000000000000000000000000000000000000000082169050919050565b61340c816133d8565b8114613416575f5ffd5b50565b5f8135905061342781613403565b92915050565b5f61343b6020840184613419565b905092915050565b61344c816133d8565b82525050565b5f82905092915050565b82818337505050565b613472610100838361345c565b5050565b60028110613482575f5ffd5b50565b5f8135905061349381613476565b92915050565b5f6134a76020840184613485565b905092915050565b7f4e487b71000000000000000000000000000000000000000000000000000000005f52602160045260245ffd5b600281106134ed576134ec6134af565b5b50565b5f8190506134fd826134dc565b919050565b5f61350c826134f0565b9050919050565b61351c81613502565b82525050565b61014082016135335f83018361342d565b61353f5f850182613443565b5061354d6020830183613452565b61355a6020850182613465565b50613569610120830183613499565b613577610120850182613513565b50505050565b5f819050919050565b61358f8161357d565b8114613599575f5ffd5b50565b5f813590506135aa81613586565b92915050565b5f6135be602084018461359c565b905092915050565b6135cf8161357d565b82525050565b5f6135e3602084018461234d565b905092915050565b5f82905092915050565b5f613603602084018461231a565b905092915050565b60a0820161361b5f8301836135f5565b6136275f85018261281a565b50613635602083018361342d565b6136426020850182613443565b5061365060408301836135d5565b61365d6040850182612943565b5061366b60608301836135d5565b6136786060850182612943565b5061368660808301836135b0565b61369360808501826135c6565b50505050565b61022082016136aa5f8301836133ce565b6136b65f850182613522565b506136c56101408301836135b0565b6136d36101408501826135c6565b506136e26101608301836135d5565b6136f0610160850182612943565b506136ff6101808301836135eb565b61370d61018085018261360b565b50505050565b5f610260820190506137275f830186613699565b81810361022083015261373a8185612b59565b905061374a610240830184612b12565b949350505050565b5f6040820190508181035f83015261376a8185612b59565b905061377960208301846124a0565b9392505050565b7f53686f756c6420426520436f6d706c65746564000000000000000000000000005f82015250565b5f6137b4601383612b49565b91506137bf82613780565b602082019050919050565b5f6020820190508181035f8301526137e1816137a8565b9050919050565b5f6040820190506137fb5f830185612b12565b61380860208301846124a0565b9392505050565b7f4e487b71000000000000000000000000000000000000000000000000000000005f52601160045260245ffd5b5f6138468261232e565b91506138518361232e565b925082820261385f8161232e565b915082820484148315176138765761387561380f565b5b5092915050565b5f6138878261232e565b91506138928361232e565b92508282019050808211156138aa576138a961380f565b5b92915050565b7f546f6b656e20616d6f756e7420746f6f206c61726765000000000000000000005f82015250565b5f6138e4601683612b49565b91506138ef826138b0565b602082019050919050565b5f6020820190508181035f830152613911816138d8565b9050919050565b7f4e487b71000000000000000000000000000000000000000000000000000000005f52601260045260245ffd5b5f61394f8261232e565b915061395a8361232e565b92508261396a57613969613918565b5b828204905092915050565b7f496e76616c6964204554482072657365727665730000000000000000000000005f82015250565b5f6139a9601483612b49565b91506139b482613975565b602082019050919050565b5f6020820190508181035f8301526139d68161399d565b9050919050565b5f6139e78261232e565b91506139f28361232e565b9250828203905081811115613a0a57613a0961380f565b5b92915050565b7f5a65726f20455448206f757470757400000000000000000000000000000000005f82015250565b5f613a44600f83612b49565b9150613a4f82613a10565b602082019050919050565b5f6020820190508181035f830152613a7181613a38565b9050919050565b7f53686f756c64204c6172676572207468616e207a65726f0000000000000000005f82015250565b5f613aac601783612b49565b9150613ab782613a78565b602082019050919050565b5f6020820190508181035f830152613ad981613aa0565b9050919050565b7f53686f756c64204e6f7420436f6d706c657465640000000000000000000000005f82015250565b5f613b14601483612b49565b9150613b1f82613ae0565b602082019050919050565b5f6020820190508181035f830152613b4181613b08565b9050919050565b7f53686f756c64204265204c6172676572207468616e204d696e000000000000005f82015250565b5f613b7c601983612b49565b9150613b8782613b48565b602082019050919050565b5f6020820190508181035f830152613ba981613b70565b9050919050565b5f60c082019050613bc35f8301896124a0565b613bd060208301886124a0565b613bdd6040830187612b3a565b613bea60608301866124a0565b613bf760808301856124a0565b613c0460a08301846124a0565b979650505050505050565b7f4d61782045746820436f737400000000000000000000000000000000000000005f82015250565b5f613c43600c83612b49565b9150613c4e82613c0f565b602082019050919050565b5f6020820190508181035f830152613c7081613c37565b9050919050565b7f4578636565642045544820436f737400000000000000000000000000000000005f82015250565b5f613cab600f83612b49565b9150613cb682613c77565b602082019050919050565b5f6020820190508181035f830152613cd881613c9f565b9050919050565b7f5a65726f20746f6b656e207265736572766573000000000000000000000000005f82015250565b5f613d13601383612b49565b9150613d1e82613cdf565b602082019050919050565b5f6020820190508181035f830152613d4081613d07565b9050919050565b7f5a65726f2045544820636f7374000000000000000000000000000000000000005f82015250565b5f613d7b600d83612b49565b9150613d8682613d47565b602082019050919050565b5f6020820190508181035f830152613da881613d6f565b905091905056fea264697066735822122052686324fc5bfc7de7cc8b00457a3657c235522ee93db61989a9ccd5407b987764736f6c634300081d0033","linkReferences":{}},"methodIdentifiers":{"bondingCurve(address)":"d0c58e48","buy(address,uint256,uint256)":"a59ac6dd","calculateEthCost((address,uint256,uint256,uint256,uint256,uint256,uint256,bool,string,uint256),uint256)":"b49a90a8","calculateSellEthOutput((address,uint256,uint256,uint256,uint256,uint256,uint256,bool,string,uint256),uint256)":"5c1c7802","calculateTokenAmount((address,uint256,uint256,uint256,uint256,uint256,uint256,bool,string,uint256),uint256)":"dd2c56c1","collectFees(address,((bytes4,bytes32[8],uint8),bytes32,uint256,(address,bytes4,uint256,uint256,bytes32)))":"2c0021f6","createPool(address,uint256)":"12d36171","getBondingCurve(address)":"83db2a21","getCreateFee()":"4244a6e2","getXUserTokens(string)":"615aae3e","sell(address,uint256,uint256)":"6a272462","setFeeAmount(uint256,uint256)":"e8dc132b","setInitialVirtualReserves(uint256,uint256)":"efc2ead8","setMcapLimit(uint256)":"648f6aeb","setOwner(address)":"13af4035","setTotalSupply(uint256)":"f7ea7a3d","verifier()":"2b7ac3f3","withdraw(address)":"51cff8d9","xUserTokens(string,uint256)":"85a91776"},"id":77}