{"abi":[{"type":"function","name":"DATA_URL","inputs":[],"outputs":[{"name":"","type":"string","internalType":"string"}],"stateMutability":"view"},{"type":"function","name":"main","inputs":[{"name":"webProof","type":"tuple","internalType":"struct WebProof","components":[{"name":"webProofJson","type":"string","internalType":"string"}]},{"name":"account","type":"address","internalType":"address"}],"outputs":[{"name":"","type":"tuple","internalType":"struct Proof","components":[{"name":"seal","type":"tuple","internalType":"struct Seal","components":[{"name":"verifierSelector","type":"bytes4","internalType":"bytes4"},{"name":"seal","type":"bytes32[8]","internalType":"bytes32[8]"},{"name":"mode","type":"uint8","internalType":"enum ProofMode"}]},{"name":"callGuestId","type":"bytes32","internalType":"bytes32"},{"name":"length","type":"uint256","internalType":"uint256"},{"name":"callAssumptions","type":"tuple","internalType":"struct CallAssumptions","components":[{"name":"proverContractAddress","type":"address","internalType":"address"},{"name":"functionSelector","type":"bytes4","internalType":"bytes4"},{"name":"settleChainId","type":"uint256","internalType":"uint256"},{"name":"settleBlockNumber","type":"uint256","internalType":"uint256"},{"name":"settleBlockHash","type":"bytes32","internalType":"bytes32"}]}]},{"name":"","type":"string","internalType":"string"},{"name":"","type":"address","internalType":"address"}],"stateMutability":"view"},{"type":"function","name":"proof","inputs":[],"outputs":[{"name":"","type":"tuple","internalType":"struct Proof","components":[{"name":"seal","type":"tuple","internalType":"struct Seal","components":[{"name":"verifierSelector","type":"bytes4","internalType":"bytes4"},{"name":"seal","type":"bytes32[8]","internalType":"bytes32[8]"},{"name":"mode","type":"uint8","internalType":"enum ProofMode"}]},{"name":"callGuestId","type":"bytes32","internalType":"bytes32"},{"name":"length","type":"uint256","internalType":"uint256"},{"name":"callAssumptions","type":"tuple","internalType":"struct CallAssumptions","components":[{"name":"proverContractAddress","type":"address","internalType":"address"},{"name":"functionSelector","type":"bytes4","internalType":"bytes4"},{"name":"settleChainId","type":"uint256","internalType":"uint256"},{"name":"settleBlockNumber","type":"uint256","internalType":"uint256"},{"name":"settleBlockHash","type":"bytes32","internalType":"bytes32"}]}]}],"stateMutability":"pure"},{"type":"function","name":"setBlock","inputs":[{"name":"blockNo","type":"uint256","internalType":"uint256"}],"outputs":[],"stateMutability":"nonpayable"},{"type":"function","name":"setChain","inputs":[{"name":"chainId","type":"uint256","internalType":"uint256"},{"name":"blockNo","type":"uint256","internalType":"uint256"}],"outputs":[],"stateMutability":"nonpayable"},{"type":"error","name":"FailedInnerCall","inputs":[]}],"bytecode":{"object":"0x6080604052348015600e575f5ffd5b50611c228061001c5f395ff3fe608060405234801561000f575f5ffd5b5060043610610055575f3560e01c806387cea3ae146100595780639bb2bd7f14610075578063c822d5ef14610093578063faf924cf146100c5578063ffbc5638146100e3575b5f5ffd5b610073600480360381019061006e9190610c50565b6100ff565b005b61007d6101dc565b60405161008a9190610ceb565b60405180910390f35b6100ad60048036038101906100a89190610d87565b6101fb565b6040516100bc93929190611068565b60405180910390f35b6100cd6102a4565b6040516100da91906110a7565b60405180910390f35b6100fd60048036038101906100f891906110c1565b6102b9565b005b7f2ae215ce9fde588adfdea92976dc9aa45aa006a0f63942d8f9f21bd4537972a35f1c73ffffffffffffffffffffffffffffffffffffffff166387cea3ae826040518263ffffffff1660e01b815260040161015a919061110e565b6020604051808303815f875af1158015610176573d5f5f3e3d5ffd5b505050506040513d601f19601f8201168201806040525081019061019a919061115c565b6101d9576040517f08c379a00000000000000000000000000000000000000000000000000000000081526004016101d0906111d1565b60405180910390fd5b50565b60405180610180016040528061015181526020016119ee610151913981565b610203610ae1565b60605f5f61023e60405180610180016040528061015181526020016119ee61015191398761023090611378565b61039990919063ffffffff16565b90505f6102896040518060400160405280600b81526020017f73637265656e5f6e616d650000000000000000000000000000000000000000008152508361041c90919063ffffffff16565b90506102936102a4565b818794509450945050509250925092565b6102ac610ae1565b6102b4610551565b905090565b7f2ae215ce9fde588adfdea92976dc9aa45aa006a0f63942d8f9f21bd4537972a35f1c73ffffffffffffffffffffffffffffffffffffffff1663ffbc563883836040518363ffffffff1660e01b815260040161031692919061138a565b6020604051808303815f875af1158015610332573d5f5f3e3d5ffd5b505050506040513d601f19601f82011682018060405250810190610356919061115c565b610395576040517f08c379a000000000000000000000000000000000000000000000000000000000815260040161038c906111d1565b60405180910390fd5b5050565b6103a1610b13565b5f6103ad845f5f610568565b90506103bc81602001516106ab565b6103d38382604001516108ba90919063ffffffff16565b610412576040517f08c379a0000000000000000000000000000000000000000000000000000000008152600401610409906113fb565b60405180910390fd5b8091505092915050565b60605f835f01515111610464576040517f08c379a000000000000000000000000000000000000000000000000000000000815260040161045b90611463565b60405180910390fd5b5f6040518060400160405280855f015181526020018481525060405160200161048d9190611578565b60405160208183030381529060405290505f5f600273f4e4fdca9d5d55e64525e314391996a15f7ec6006104c191906115c5565b73ffffffffffffffffffffffffffffffffffffffff16836040516104e59190611650565b5f60405180830381855afa9150503d805f811461051d576040519150601f19603f3d011682016040523d82523d5f602084013e610522565b606091505b509150915061053182826108e1565b508080602001905181019061054691906116d4565b935050505092915050565b610559610ae1565b610561610ae1565b8091505090565b610570610b13565b5f5f5f73f4e4fdca9d5d55e64525e314391996a15f7ec60061059291906115c5565b73ffffffffffffffffffffffffffffffffffffffff168686866040516020016105bd939291906117ce565b6040516020818303038152906040526040516105d99190611650565b5f60405180830381855afa9150503d805f8114610611576040519150601f19603f3d011682016040523d82523d5f602084013e610616565b606091505b509150915061062582826108e1565b505f8180602001905181019061063b91906118da565b905060405180606001604052808260026004811061065c5761065b611921565b5b602002015181526020018260036004811061067a57610679611921565b5b60200201518152602001825f6004811061069757610696611921565b5b602002015181525093505050509392505050565b6106b3610905565b15610727576106e3816040518060e0016040528060ae8152602001611b3f60ae91396108ba90919063ffffffff16565b610722576040517f08c379a000000000000000000000000000000000000000000000000000000000815260040161071990611998565b60405180910390fd5b6108b7565b61072f610922565b156107f75761073c61098a565b73ffffffffffffffffffffffffffffffffffffffff16632505a3bd826040518263ffffffff1660e01b81526004016107749190610ceb565b602060405180830381865afa15801561078f573d5f5f3e3d5ffd5b505050506040513d601f19601f820116820180604052508101906107b3919061115c565b6107f2576040517f08c379a00000000000000000000000000000000000000000000000000000000081526004016107e990611998565b60405180910390fd5b6108b6565b6107ff6109a5565b73ffffffffffffffffffffffffffffffffffffffff16632505a3bd826040518263ffffffff1660e01b81526004016108379190610ceb565b602060405180830381865afa158015610852573d5f5f3e3d5ffd5b505050506040513d601f19601f82011682018060405250810190610876919061115c565b6108b5576040517f08c379a00000000000000000000000000000000000000000000000000000000081526004016108ac90611998565b60405180910390fd5b5b5b50565b5f815183511480156108d9575081805190602001208380519060200120145b905092915050565b6060826108f6576108f1826109c0565b6108fe565b8190506108ff565b5b92915050565b5f61090e610a04565b8061091d575061091c610a1c565b5b905090565b5f60014614806109325750600a46145b8061093d5750608946145b80610949575061014446145b8061095557506101e046145b80610961575061210546145b8061096d575061a4b146145b80610979575061a4ba46145b80610985575061e70846145b905090565b5f73565dca92902ea0ca597b5e62df0b47886b6b7d4d905090565b5f73c4e4dc291a5c4debe9ff5a3372f3fdd2e42bac86905090565b5f815111156109d25780518082602001fd5b6040517f1425ea4200000000000000000000000000000000000000000000000000000000815260040160405180910390fd5b5f617a69461480610a1757506204991946145b905090565b5f5f5f601e73f4e4fdca9d5d55e64525e314391996a15f7ec600610a4091906115c5565b73ffffffffffffffffffffffffffffffffffffffff16604051610a62906119d9565b5f60405180830381855afa9150503d805f8114610a9a576040519150601f19603f3d011682016040523d82523d5f602084013e610a9f565b606091505b5091509150811580610ab157505f8151145b15610ac0575f92505050610ade565b5f81806020019051810190610ad5919061115c565b90508093505050505b90565b6040518060800160405280610af4610b34565b81526020015f81526020015f8152602001610b0d610b8a565b81525090565b60405180606001604052806060815260200160608152602001606081525090565b60405180606001604052805f7bffffffffffffffffffffffffffffffffffffffffffffffffffffffff19168152602001610b6c610be9565b81526020015f6001811115610b8457610b83610ec9565b5b81525090565b6040518060a001604052805f73ffffffffffffffffffffffffffffffffffffffff1681526020015f7bffffffffffffffffffffffffffffffffffffffffffffffffffffffff191681526020015f81526020015f81526020015f81525090565b604051806101000160405280600890602082028036833780820191505090505090565b5f604051905090565b5f5ffd5b5f5ffd5b5f819050919050565b610c2f81610c1d565b8114610c39575f5ffd5b50565b5f81359050610c4a81610c26565b92915050565b5f60208284031215610c6557610c64610c15565b5b5f610c7284828501610c3c565b91505092915050565b5f81519050919050565b5f82825260208201905092915050565b8281835e5f83830152505050565b5f601f19601f8301169050919050565b5f610cbd82610c7b565b610cc78185610c85565b9350610cd7818560208601610c95565b610ce081610ca3565b840191505092915050565b5f6020820190508181035f830152610d038184610cb3565b905092915050565b5f5ffd5b5f60208284031215610d2457610d23610d0b565b5b81905092915050565b5f73ffffffffffffffffffffffffffffffffffffffff82169050919050565b5f610d5682610d2d565b9050919050565b610d6681610d4c565b8114610d70575f5ffd5b50565b5f81359050610d8181610d5d565b92915050565b5f5f60408385031215610d9d57610d9c610c15565b5b5f83013567ffffffffffffffff811115610dba57610db9610c19565b5b610dc685828601610d0f565b9250506020610dd785828601610d73565b9150509250929050565b5f7fffffffff0000000000000000000000000000000000000000000000000000000082169050919050565b610e1581610de1565b82525050565b5f60089050919050565b5f81905092915050565b5f819050919050565b5f819050919050565b610e4a81610e38565b82525050565b5f610e5b8383610e41565b60208301905092915050565b5f602082019050919050565b610e7c81610e1b565b610e868184610e25565b9250610e9182610e2f565b805f5b83811015610ec1578151610ea88782610e50565b9650610eb383610e67565b925050600181019050610e94565b505050505050565b7f4e487b71000000000000000000000000000000000000000000000000000000005f52602160045260245ffd5b60028110610f0757610f06610ec9565b5b50565b5f819050610f1782610ef6565b919050565b5f610f2682610f0a565b9050919050565b610f3681610f1c565b82525050565b61014082015f820151610f515f850182610e0c565b506020820151610f646020850182610e73565b506040820151610f78610120850182610f2d565b50505050565b610f8781610c1d565b82525050565b610f9681610d4c565b82525050565b60a082015f820151610fb05f850182610f8d565b506020820151610fc36020850182610e0c565b506040820151610fd66040850182610f7e565b506060820151610fe96060850182610f7e565b506080820151610ffc6080850182610e41565b50505050565b61022082015f8201516110175f850182610f3c565b50602082015161102b610140850182610e41565b50604082015161103f610160850182610f7e565b506060820151611053610180850182610f9c565b50505050565b61106281610d4c565b82525050565b5f6102608201905061107c5f830186611002565b81810361022083015261108f8185610cb3565b905061109f610240830184611059565b949350505050565b5f610220820190506110bb5f830184611002565b92915050565b5f5f604083850312156110d7576110d6610c15565b5b5f6110e485828601610c3c565b92505060206110f585828601610c3c565b9150509250929050565b61110881610c1d565b82525050565b5f6020820190506111215f8301846110ff565b92915050565b5f8115159050919050565b61113b81611127565b8114611145575f5ffd5b50565b5f8151905061115681611132565b92915050565b5f6020828403121561117157611170610c15565b5b5f61117e84828501611148565b91505092915050565b7f4661696c6564206368656174636f646520696e766f636174696f6e00000000005f82015250565b5f6111bb601b83610c85565b91506111c682611187565b602082019050919050565b5f6020820190508181035f8301526111e8816111af565b9050919050565b5f5ffd5b7f4e487b71000000000000000000000000000000000000000000000000000000005f52604160045260245ffd5b61122982610ca3565b810181811067ffffffffffffffff82111715611248576112476111f3565b5b80604052505050565b5f61125a610c0c565b90506112668282611220565b919050565b5f5ffd5b5f5ffd5b5f5ffd5b5f67ffffffffffffffff821115611291576112906111f3565b5b61129a82610ca3565b9050602081019050919050565b828183375f83830152505050565b5f6112c76112c284611277565b611251565b9050828152602081018484840111156112e3576112e2611273565b5b6112ee8482856112a7565b509392505050565b5f82601f83011261130a5761130961126f565b5b813561131a8482602086016112b5565b91505092915050565b5f60208284031215611338576113376111ef565b5b6113426020611251565b90505f82013567ffffffffffffffff8111156113615761136061126b565b5b61136d848285016112f6565b5f8301525092915050565b5f6113833683611323565b9050919050565b5f60408201905061139d5f8301856110ff565b6113aa60208301846110ff565b9392505050565b7f55524c206d69736d6174636800000000000000000000000000000000000000005f82015250565b5f6113e5600c83610c85565b91506113f0826113b1565b602082019050919050565b5f6020820190508181035f830152611412816113d9565b9050919050565b7f426f647920697320656d707479000000000000000000000000000000000000005f82015250565b5f61144d600d83610c85565b915061145882611419565b602082019050919050565b5f6020820190508181035f83015261147a81611441565b9050919050565b5f60029050919050565b5f81905092915050565b5f819050919050565b5f82825260208201905092915050565b5f6114b882610c7b565b6114c2818561149e565b93506114d2818560208601610c95565b6114db81610ca3565b840191505092915050565b5f6114f183836114ae565b905092915050565b5f602082019050919050565b5f61150f82611481565b611519818561148b565b93508360208202850161152b85611495565b805f5b85811015611566578484038952815161154785826114e6565b9450611552836114f9565b925060208a0199505060018101905061152e565b50829750879550505050505092915050565b5f6020820190508181035f8301526115908184611505565b905092915050565b7f4e487b71000000000000000000000000000000000000000000000000000000005f52601160045260245ffd5b5f6115cf82610d2d565b91506115da83610d2d565b9250828201905073ffffffffffffffffffffffffffffffffffffffff81111561160657611605611598565b5b92915050565b5f81519050919050565b5f81905092915050565b5f61162a8261160c565b6116348185611616565b9350611644818560208601610c95565b80840191505092915050565b5f61165b8284611620565b915081905092915050565b5f61167861167384611277565b611251565b90508281526020810184848401111561169457611693611273565b5b61169f848285610c95565b509392505050565b5f82601f8301126116bb576116ba61126f565b5b81516116cb848260208601611666565b91505092915050565b5f602082840312156116e9576116e8610c15565b5b5f82015167ffffffffffffffff81111561170657611705610c19565b5b611712848285016116a7565b91505092915050565b5f602083015f8301518482035f86015261173582826114ae565b9150508091505092915050565b6002811061175357611752610ec9565b5b50565b5f81905061176382611742565b919050565b5f61177282611756565b9050919050565b61178281611768565b82525050565b6002811061179957611798610ec9565b5b50565b5f8190506117a982611788565b919050565b5f6117b88261179c565b9050919050565b6117c8816117ae565b82525050565b5f6060820190508181035f8301526117e6818661171b565b90506117f56020830185611779565b61180260408301846117bf565b949350505050565b5f67ffffffffffffffff821115611824576118236111f3565b5b602082029050919050565b5f5ffd5b5f6118456118408461180a565b611251565b9050806020840283018581111561185f5761185e61182f565b5b835b818110156118a657805167ffffffffffffffff8111156118845761188361126f565b5b80860161189189826116a7565b85526020850194505050602081019050611861565b5050509392505050565b5f82601f8301126118c4576118c361126f565b5b60046118d1848285611833565b91505092915050565b5f602082840312156118ef576118ee610c15565b5b5f82015167ffffffffffffffff81111561190c5761190b610c19565b5b611918848285016118b0565b91505092915050565b7f4e487b71000000000000000000000000000000000000000000000000000000005f52603260045260245ffd5b7f496e76616c6964206e6f74617279207075626c6963206b6579000000000000005f82015250565b5f611982601983610c85565b915061198d8261194e565b602082019050919050565b5f6020820190508181035f8301526119af81611976565b9050919050565b50565b5f6119c45f83611616565b91506119cf826119b6565b5f82019050919050565b5f6119e3826119b9565b915081905091905056fe68747470733a2f2f6170692e782e636f6d2f312e312f6163636f756e742f73657474696e67732e6a736f6e3f696e636c7564655f6578745f73686172696e675f617564696f7370616365735f6c697374656e696e675f646174615f776974685f666f6c6c6f776572733d7472756526696e636c7564655f6d656e74696f6e5f66696c7465723d7472756526696e636c7564655f6e7366775f757365725f666c61673d7472756526696e636c7564655f6e7366775f61646d696e5f666c61673d7472756526696e636c7564655f72616e6b65645f74696d656c696e653d7472756526696e636c7564655f616c745f746578745f636f6d706f73653d74727565266578743d73736f436f6e6e656374696f6e7326696e636c7564655f636f756e7472795f636f64653d7472756526696e636c7564655f6578745f646d5f6e7366775f6d656469615f66696c7465723d747275652d2d2d2d2d424547494e205055424c4943204b45592d2d2d2d2d0a4d465977454159484b6f5a497a6a3043415159464b34454541416f445167414565306a786e424f6261496a37586a673654584c434d3147472f566859353635300a4f72532f6a6763624275666f2f51446646764c2f69727a4976314a536d684769566373434843776f6c684458576367653776324973513d3d0a2d2d2d2d2d454e44205055424c4943204b45592d2d2d2d2d0aa2646970667358221220e692533daaaab7078037ba9976951a06a8eaaaa106884c483e16f208b93a8b7e64736f6c634300081d0033","linkReferences":{}},"methodIdentifiers":{"DATA_URL()":"9bb2bd7f","main((string),address)":"c822d5ef","proof()":"faf924cf","setBlock(uint256)":"87cea3ae","setChain(uint256,uint256)":"ffbc5638"},"id":80}